:020000020000FC
:02000000FFC03F
:0200100032C1FB
:1002000008E00EBF0FE50DBF7CE38FEF84BB81BB21
:10021000F0E0E5E05FEF5ABB5ABB03E30E945E01EA
:100220000E949F0102E30E945E010E949F0108E27A
:100230000E945E010E949F010EE00E945E0101E0AB
:100240000E945E010E949F0106E00E945E010CE098
:100250000E945E0140E849BF78944FE743BD4BE000
:1002600045BDB89816E013BF552752BF42B718B71F
:1002700010FFFCCF04C008D0552752BF189561E08D
:1002800068BF662762BFF2CF479F61D001D0089553
:10029000052D30D0062D2ED0072D2CD0082D2AD09C
:1002A000092D28D000E80AD03FD03ED03DD03CD028
:1002B000000000000000000000000895B02FB07F93
:1002C000ABB3AF70AB2BABBBD898D998DA9A0E947E
:1002D0009401DA980E949701B02FB295B07FABB32A
:1002E000AF70AB2BABBBDA9A0E949401DA980E94F4
:1002F00097010895B02FB07FABB3AF70AB2BABBB02
:10030000D89AD998DA9A0E949401DA98B02FB295C7
:10031000B07FABB3AF70AB2BABBBDA9A0E9494014A
:10032000DA980E94970108950000000008951F9335
:100330001CE30E9494011A95E1F71F9108951F9301
:1003400014E10E9497011A95E1F71F91089512D0C8
:1003500094E0292E9081992329F490E291932A9494
:10036000C9F790812394905D919390812A94D9F755
:10037000359708951F920F9297E2392E90E1292E1A
:1003800014D093E0392E98EE292E0FD090E0392E1C
:1003900094E6292E0AD090E0392E9AE0292E05D035
:1003A000008234970F901F9008959927131438F006
:1003B00011F4021420F0021813089395F7CF9193CB
:0203C00008959E
:00000001FF
